:04000000803119280A
:100008007E1480310B1F09280A2817282100111F88
:100018000E280F2817282000111F13281428172826
:100028008731962780317E10090080311B282000F7
:10003800EB01EC01ED01EE017E10200084312F2C44
:10004800200023088039A8002808AD002335A8001F
:100058002808B300A21F3128322833283314330864
:100068000319372838284728330A031D3C283D2818
:1000780045280030A3000030A2000030A100003065
:10008800A000A2174F280030A3000030A2000030C3
:10009800A1000030A00027088039A8002808AD0674
:1000A8002735A8002808B200A61F5B285C285D2811
:1000B800321432080319612862287128320A031D94
:1000C800662867286F280030A7000030A600003097
:1000D800A5000030A400A61779280030A70000303A
:1000E800A6000030A5000030A400320803197D28BE
:1000F8007E2883283308031D822883288C28003013
:10010800A3000030A2000030A1000030A0007A2A2D
:100118002008A8002808F00026088631E526803146
:1001280071082000B9007008B8003808A800A901B3
:10013800AA01AB012B08B1002A08B0002908AF00BA
:100148002808AE003908A800A901AA01AB012B08AC
:10015800B7002A08B6002908B5002808B400210805
:10016800A8002808F00025088631E52680317108A6
:100178002000B9007008B8003808A800A901AA0131
:10018800AB012808AE072908AF3D2A08B03D2B0867
:10019800B13D3908A800A901AA01AB012808B40794
:1001A8002908B53D2A08B63D2B08B73D2208A80006
:1001B8002808F00024088631E526803171082000DF
:1001C800B9007008B8003808A800A901AA01AB0155
:1001D8002808AE072908AF3D2A08B03D2B08B13DD5
:1001E8003908A800A901AA01AB012808B407290801
:1001F800B53D2A08B63D2B08B73D0830AE35AF0DE2
:10020800B00DB10D890B02292108A8002808F000BB
:1002180024088631E526803171082000B90070086D
:10022800B8003808AE073908AF3D0030B03DB13DE1
:100238002008A8002808F00025088631E526803126
:1002480071082000B9007008B8003808AE073908EE
:10025800AF3D0030B03DB13D0830AE35AF0DB00D0B
:10026800B10D890B31292008A8002808F0002408BE
:100278008631E526803171082000B9007008B80081
:100288003808AE073908AF3D0030B03DB13D210810
:10029800A8002808F00026088631E5268031710874
:1002A8002000B9007008B8003808B4073908B53D0F
:1002B8000030B63DB73D2208A8002808F000250800
:1002C8008631E526803171082000B9007008B80031
:1002D8003808B4073908B53D0030B63DB73D2208A7
:1002E800A8002808F00026088631E5268031710824
:1002F8002000B9007008B8003808A8003908A9001B
:10030800AA01AB010830A835A90DAA0DAB0D890BC0
:1003180087292808B4072908B53D2A08B63D2B08BF
:10032800B73D2E08A8002F08A9003008AA003108F8
:10033800AB001830AB36AA0CA90CA80C890B9E2967
:100348002808B4072908B53D2A08B63D2B08B73D4B
:100358000830AE35AF0DB00DB10D890BAD2933089E
:100368003207A800A901A90D2808823EB800FF306D
:10037800293DB900D6290130B435B50DB60DB70DF4
:10038800890BC029B11FC929CA29CB2934140130C6
:10039800AE35AF0DB00DB10D890BCC29FF30B807C4
:1003A800FF30B93DB61FD929DA29BF29B201B11FDB
:1003B800DE29DF29FB29FF302E05A800FF302F0595
:1003C800A900FF303005AA007F303105AB002B08AB
:1003D8002A04290428040319F229F329F629B20169
:1003E800B20AFB29341CF929FA29FB29F329320816
:1003F8000319FF29002A282A0130B4070030B53D27
:100408000030B63D0030B73D371C0B2A0C2A282A8D
:100418003408A8003508A9003608AA003708AB0038
:100428000130AC00AB37AA0CA90CA80CAC0B162AEF
:100438002B08B7002A08B6002908B5002808B40018
:100448000130B8070030B93D3908803AA80080303B
:100458002802031D312AFF303802031C342A352AAA
:100468003F2A7F302000B7008030B6000030B5004A
:100478000030B4006E2A20003908803AA800803085
:100488002802031D492A0130380203184C2A4D2A34
:10049800582A00302000B7000030B6000030B50000
:1004A8000030B400AD016E2A20003808A8002808E2
:1004B800B300FF30B405FF30B5057F30B605003016
:1004C800B705331C682A692A6A2AB6173336A80082
:1004D8002808B7002D08A8002808B7043708A30083
:1004E8003608A2003508A1003408A0000800200042
:1004F80041088039C2004208CB004135C200420899
:10050800D200C01F882A892A8A2A5214520803193D
:100518008E2A8F2A9F2A520A031D932A942A9C2ADC
:100528000030C1000030C0000030BF000030BE0005
:10053800C017C101A72A0030C1000030C000003038
:10054800BF000030BE003D088039C2004208CB061B
:100558003D35C2004208D300BC1FB32AB42AB52ACD
:10056800531453080319B92ABA2ACA2A530A031D6D
:10057800BE2ABF2AC72A0030BD000030BC000030A8
:10058800BB000030BA00BC17BD01D22A0030BD0044
:100598000030BC000030BB000030BA003D083C040D
:1005A8003B043A04031DD92ADA2AF32A0030C10091
:1005B8000030C0000030BF000030BE008030C004F2
:1005C8007F30C1044B08C2004208C1044108BD0085
:1005D8004008BC003F08BB003E08BA002E2C520859
:1005E800031DF72AF82A012B0030BD000030BC009B
:1005F8000030BB000030BA002E2C5208C200C301E4
:100608004308C50053084202C400031CC50344083C
:100618007F3ECC000030453DCD004108CA0040086F
:10062800C9003F08C8003E08C7000030C1000030BC
:10063800C0000030BF000030BE000030D1000030E4
:10064800D0000030CF000030CE00D301692B530812
:1006580003192F2B302B4A2B0130C735C80DC90D74
:10066800CA0D890B312B0130BE35BF0DC00DC10D30
:10067800890B382BD11F412B422B432B3E140130C1
:10068800CE35CF0DD00DD10D890B442B3D084A0234
:10069800031D582B3C084902031D582B3B084802F0
:1006A800031D582B3A084702031C5B2B5C2B652B58
:1006B80051173A08C7023B08C83B3C08C93B3D08EC
:1006C800CA3B0130C2004208D3071A305302031C48
:1006D8006E2B6F2B2B2B4A08490448044704031937
:1006E800762B772B902B4E14902B0130BE35BF0DF7
:1006F800C00DC10D890B7A2BD11F832B842B852B21
:100708003E140130CE35CF0DD00DD10D890B862B7F
:10071800FF30CC07FF30CD3DC01F932B942B792B96
:10072800D301D11F982B992BB52BFF304E05C20052
:10073800FF304F05C300FF305005C4007F3051051E
:10074800C50045084404430442040319AC2BAD2BEF
:10075800B02BD301D30AB52B3E1CB32BB42BB52B2E
:10076800AD2B53080319B92BBA2BE22B0130BE0766
:100778000030BF3D0030C03D0030C13D411CC52B9D
:10078800C62BE22B3E08C2003F08C3004008C40045
:100798004108C5000130C600C537C40CC30CC20CE3
:1007A800C60BD02B4508C1004408C0004308BF0051
:1007B8004208BE000130CC070030CD3D4D08803ADC
:1007C800C20080304202031DEB2BFF304C02031C99
:1007D800EE2BEF2BFC2BFF302000CC000030CD009F
:1007E8000030C1000030C0000030BF000030BE0043
:1007F80020004D08803AC20080304202031D062CBA
:1008080001304C020318092C0A2C162C2000CC01AC
:10081800CD010030C1000030C0000030BF00003002
:10082800BE00CB0120004C08C2004208D200521C76
:100838001E2C1F2C212CC017252C7F30C2004208EB
:10084800C0055236C2004208C1004B08C200420827
:10085800C104EA2A080087317627843122008D15E1
:100868008631B026843120000C0E0139E900EA01F6
:1008780069082100A00020006A082100A1002000CA
:100888000C0E0139E900EA0169082100A0002000E6
:100898006A082100A100200821040319542C552CB2
:1008A800432C22008D11582C863114268431003AAD
:1008B80003195F2C602C582CCA2C0130F000003032
:1008C800F10087316027843103302000E9006E3061
:1008D800890B6C2CE90B6C2C0130F0000030F10016
:1008E80087314A27843103302000E9006E30890BB4
:1008F8007B2CE90B7B2C0130F0000030F1008731B4
:100908003427843103302000E9006E30890B8A2CAB
:10091800E90B8A2C0130F0000030F10087311E27E6
:100928008431582C0030F000F10087311E278431C3
:1009380003302000E9006E30890BA02CE90BA02CB5
:100948000030F000F1008731342784310330200073
:10095800E9006E30890BAE2CE90BAE2C0030F000AC
:10096800F10087314A27843103302000E9006E30D6
:10097800890BBC2CE90BBC2C0030F000F10087314E
:1009880060278431582C22008D15962C20006C0885
:10099800003A0319D02C582C6B08013A0319612C22
:1009A800033A0319962C013A0319C72C582C8031A5
:1009B8001928F80078080319E22CE32CF72CF31F08
:1009C800E62CE72CF72C7009FA007109FB00720974
:1009D800FC007309FD00FA0A0319FB0A0319FC0A53
:1009E8000319FD0AFF2C7308FD007208FC0071084A
:1009F800FB007008FA007308720471047004031D88
:100A0800062D072D102D0030F3000030F2000030C5
:100A1800F1000030F000882D9630F4007408F900D9
:100A2800202D0130F4007408F9070130FD36FC0C64
:100A3800FB0CFA0C890B1A2DFE307D05031D252DA4
:100A4800262D152D3A2D0130F4007408F9070130D0
:100A5800FA070030FB3D0030FC3D0030FD3D013021
:100A6800FD36FC0CFB0CFA0C890B342DFF307D0590
:100A7800031D3F2D402D272D4A2D0130F90201304D
:100A8800FA35FB0DFC0DFD0D890B442DFC1B4D2D7E
:100A98004E2D542D023079020318532D542D412D1B
:100AA8007918572D582D602DFF30FA05FF30FB05BA
:100AB8007F30FC05FF30FD050310F90C7908F400C0
:100AC800F501F601F7011830F435F50DF60DF70DBF
:100AD800890B682D7408FA047508FB047608FC0471
:100AE8007708FD04780803197A2D7B2D802DF31FD4
:100AF8007E2D7F2D802DFD177D08F3007C08F200E8
:100B08007B08F1007A08F0000800003020005A0540
:100B1800E20000305B05E30080305C05E4007F30D4
:100B28005D05E5006508640463046204031D9D2DEA
:100B38009E2DA62D0030DD000030DC000030DB00EB
:100B48000030DA0000305E05E20000305F05E300A7
:100B580080306005E4007F306105E50065086404C5
:100B680063046204031DB92DBA2DC22D0030E100C3
:100B78000030E0000030DF000030DE00DD1FC52D52
:100B8800C62DDE2D0030E2000030E3000030E40026
:100B98008030E5005A08E2025B08E33B5C08E43B6E
:100BA8005D08E53B6508DD006408DC006308DB00E0
:100BB8006208DA00E11FE12DE22DFA2D0030E20093
:100BC8000030E3000030E4008030E5005E08E20217
:100BD8005F08E33B6008E43B6108E53B6508E1002A
:100BE8006408E0006308DF006208DE008030DD068C
:100BF8008030E10661085D02031D0C2E60085C026E
:100C0800031D0C2E5F085B02031D0C2E5E085A02A2
:100C180003180F2E102E122E0310132E0314080083
:100C280086316226863120005708DD005608DC0030
:100C38005508DB005408DA004130E1003030E000AC
:100C48000030DF000030DE00853189258631031849
:100C58002E2E2F2E392E01302000ED000030EE0010
:100C68000330E6006608E800602E20000C0E01390B
:100C7800E600E7012100210820006706031D482E31
:100C8800210020082000660603194B2E4C2E602EEA
:100C98000130ED000030EE00210020032104031D87
:100CA800562E572E5D2E02302000E6006608E8001A
:100CB800602E2000E801E80A6808080087318627C6
:100CC800863103308731B32786318731F027863163
:100CD8008731DC27863171082000D9007008D800D8
:100CE8004430BD008030BC000030BB000030BA008A
:100CF8004130A3007030A2000030A1000030A000F5
:100D08005808F0005908F100F201F301003084316D
:100D1800DD24863173082000A7007208A600710838
:100D2800A5007008A4008031242086312000230803
:100D3800C1002208C0002108BF002008BE0082317F
:100D48007B22863120003D08D7003C08D6003B08AE
:100D5800D5003A08D40008000230F0007008F2000C
:100D680022000D1420000D0C0139F000F10170086B
:100D7800F3007108F4000D0C890C0139F000F10141
:100D88007008F5007108F600730874040319CD2E75
:100D9800CE2ED52E75087604031DD32ED42ED52E2F
:100DA800F201750876040319DA2EDB2EE32E730898
:100DB8007404031DE02EE12EE32EF201F20A7208FC
:100DC8000800F800F401F5017008F200F301720858
:100DD800F6007308F700781CF22EF32EF72E76082B
:100DE800F4077708F53D0130F635F70D890BF82E35
:100DF8000310F80C7808031D022F032FEF2E750837
:100E0800F1007408F000080022008C0108308D0001
:100E1800FF3021008C0006308D0023008D010F303B
:100E28008C0024008D018C012100951722009D0162
:100E38009E010800262F22000D17332F22000D13C4
:100E4800332F332F7108003A03192B2F252F7008E1
:100E5800003A0319222F013A03191F2F252F0800E2
:100E68003C2F22008D17492F22008D13492F492F1F
:100E78007108003A0319412F3B2F7008003A0319F3
:100E8800382F013A0319352F3B2F0800522F220023
:100E98008D165F2F22008D125F2F5F2F7108003A89
:100EA8000319572F512F7008003A03194E2F013A92
:100EB80003194B2F512F0800682F22000D16752F8C
:100EC80022000D12752F752F7108003A03196D2F26
:100ED800672F7008003A0319642F013A0319612F2C
:100EE800672F08008731082787318731D527873151
:100EF8008731EC2787318731862787318731A527C6
:100F080087310800603021009E009B019C01013060
:100F18009D001117F330F0000730F1008731E22708
:100F28008731080020001113210022082304031927
:100F38009E2F9F2FA42F23088A0022080A0087319A
:100F4800080021001508C0391038950060302000CD
:100F580095006030F0007008EF000B110800F100F8
:100F68007108F000F00DF00D21001D08700683399E
:100F780070069D001D140800323430343234323487
:100F88002F34303437342F3431343534003453343B
:100F980065347134753465346E3463346534723451
:100FA8000034383021009900980122009601080089
:100FB80021001C08F1001B08F0000800710821003E
:100FC800A3007008A200080030342E3431340034F5
:100FD800163021009700080021009D140800080021
:020000040001F9
:08000000FF3FFF3FFF3FFF3F00
:04000E00E43FFF3E8E
:00000001FF
